{
  "contractName": "RolexBlockChain",
  "abi": [
    {
      "constant": true,
      "inputs": [
        {
          "name": "",
          "type": "uint256"
        }
      ],
      "name": "productMap",
      "outputs": [
        {
          "name": "productUniqueCode",
          "type": "string"
        },
        {
          "name": "productName",
          "type": "string"
        },
        {
          "name": "productDescription",
          "type": "string"
        },
        {
          "name": "productType",
          "type": "string"
        },
        {
          "name": "manufacturer",
          "type": "string"
        },
        {
          "name": "dateOfManufacture",
          "type": "string"
        },
        {
          "name": "valueOfProduct",
          "type": "string"
        }
      ],
      "payable": false,
      "stateMutability": "view",
      "type": "function"
    },
    {
      "constant": true,
      "inputs": [
        {
          "name": "",
          "type": "uint256"
        }
      ],
      "name": "productMapTr",
      "outputs": [
        {
          "name": "productUniqueCode",
          "type": "string"
        },
        {
          "name": "dateOfTransaction",
          "type": "string"
        },
        {
          "name": "transactionNotes",
          "type": "string"
        },
        {
          "name": "transactionFrom",
          "type": "string"
        },
        {
          "name": "transactionTo",
          "type": "string"
        }
      ],
      "payable": false,
      "stateMutability": "view",
      "type": "function"
    },
    {
      "constant": false,
      "inputs": [
        {
          "name": "pUniqueCode",
          "type": "string"
        },
        {
          "name": "pName",
          "type": "string"
        },
        {
          "name": "pDescription",
          "type": "string"
        },
        {
          "name": "pType",
          "type": "string"
        },
        {
          "name": "pManufacturer",
          "type": "string"
        },
        {
          "name": "pDateOfManufacture",
          "type": "string"
        },
        {
          "name": "pValueOfProduct",
          "type": "string"
        }
      ],
      "name": "createNewProduct",
      "outputs": [],
      "payable": false,
      "stateMutability": "nonpayable",
      "type": "function"
    },
    {
      "constant": false,
      "inputs": [
        {
          "name": "pUniqueCode",
          "type": "string"
        },
        {
          "name": "pTransactionDate",
          "type": "string"
        },
        {
          "name": "pNotes",
          "type": "string"
        },
        {
          "name": "pFrom",
          "type": "string"
        },
        {
          "name": "pTo",
          "type": "string"
        }
      ],
      "name": "recordTransaction",
      "outputs": [],
      "payable": false,
      "stateMutability": "nonpayable",
      "type": "function"
    },
    {
      "constant": true,
      "inputs": [
        {
          "name": "productUniqueCode",
          "type": "string"
        }
      ],
      "name": "isProductValid",
      "outputs": [
        {
          "name": "",
          "type": "bytes32"
        }
      ],
      "payable": false,
      "stateMutability": "view",
      "type": "function"
    },
    {
      "constant": true,
      "inputs": [
        {
          "name": "productUniqueCode",
          "type": "string"
        }
      ],
      "name": "getProductCurrentLocation",
      "outputs": [
        {
          "name": "",
          "type": "string"
        }
      ],
      "payable": false,
      "stateMutability": "view",
      "type": "function"
    }
  ],
  "bytecode": "0x608060405260008055600060015534801561001957600080fd5b506124cf806100296000396000f3fe608060405234801561001057600080fd5b50600436106100625760003560e01c806307195f5c146100675780631c4351531461019b5780633fb366f71461026a578063d7f0719d146106af578063e11bf0d3146109de578063e205f39914610c35575b600080fd5b6101206004803603602081101561007d57600080fd5b810190808035906020019064010000000081111561009a57600080fd5b8201836020820111156100ac57600080fd5b803590602001918460018302840111640100000000831117156100ce57600080fd5b91908080601f016020809104026020016040519081016040528093929190818152602001838380828437600081840152601f19601f820116905080830192505050505050509192919290505050610f4c565b6040518080602001828103825283818151815260200191508051906020019080838360005b83811015610160578082015181840152602081019050610145565b50505050905090810190601f16801561018d5780820380516001836020036101000a031916815260200191505b509250505060405180910390f35b610254600480360360208110156101b157600080fd5b81019080803590602001906401000000008111156101ce57600080fd5b8201836020820111156101e057600080fd5b8035906020019184600183028401116401000000008311171561020257600080fd5b91908080601f016020809104026020016040519081016040528093929190818152602001838380828437600081840152601f19601f8201169050808301925050505050505091929192905050506112fc565b6040518082815260200191505060405180910390f35b6106ad600480360360e081101561028057600080fd5b810190808035906020019064010000000081111561029d57600080fd5b8201836020820111156102af57600080fd5b803590602001918460018302840111640100000000831117156102d157600080fd5b91908080601f016020809104026020016040519081016040528093929190818152602001838380828437600081840152601f19601f8201169050808301925050505050505091929192908035906020019064010000000081111561033457600080fd5b82018360208201111561034657600080fd5b8035906020019184600183028401116401000000008311171561036857600080fd5b91908080601f016020809104026020016040519081016040528093929190818152602001838380828437600081840152601f19601f820116905080830192505050505050509192919290803590602001906401000000008111156103cb57600080fd5b8201836020820111156103dd57600080fd5b803590602001918460018302840111640100000000831117156103ff57600080fd5b91908080601f016020809104026020016040519081016040528093929190818152602001838380828437600081840152601f19601f8201169050808301925050505050505091929192908035906020019064010000000081111561046257600080fd5b82018360208201111561047457600080fd5b8035906020019184600183028401116401000000008311171561049657600080fd5b91908080601f016020809104026020016040519081016040528093929190818152602001838380828437600081840152601f19601f820116905080830192505050505050509192919290803590602001906401000000008111156104f957600080fd5b82018360208201111561050b57600080fd5b8035906020019184600183028401116401000000008311171561052d57600080fd5b91908080601f016020809104026020016040519081016040528093929190818152602001838380828437600081840152601f19601f8201169050808301925050505050505091929192908035906020019064010000000081111561059057600080fd5b8201836020820111156105a257600080fd5b803590602001918460018302840111640100000000831117156105c457600080fd5b91908080601f016020809104026020016040519081016040528093929190818152602001838380828437600081840152601f19601f8201169050808301925050505050505091929192908035906020019064010000000081111561062757600080fd5b82018360208201111561063957600080fd5b8035906020019184600183028401116401000000008311171561065b57600080fd5b91908080601f016020809104026020016040519081016040528093929190818152602001838380828437600081840152601f19601f82011690508083019250505050505050919291929050505061180c565b005b6106db600480360360208110156106c557600080fd5b8101908080359060200190929190505050611a43565b604051808060200180602001806020018060200180602001806020018060200188810388528f818151815260200191508051906020019080838360005b83811015610733578082015181840152602081019050610718565b50505050905090810190601f1680156107605780820380516001836020036101000a031916815260200191505b5088810387528e818151815260200191508051906020019080838360005b8381101561079957808201518184015260208101905061077e565b50505050905090810190601f1680156107c65780820380516001836020036101000a031916815260200191505b5088810386528d818151815260200191508051906020019080838360005b838110156107ff5780820151818401526020810190506107e4565b50505050905090810190601f16801561082c5780820380516001836020036101000a031916815260200191505b5088810385528c818151815260200191508051906020019080838360005b8381101561086557808201518184015260208101905061084a565b50505050905090810190601f1680156108925780820380516001836020036101000a031916815260200191505b5088810384528b818151815260200191508051906020019080838360005b838110156108cb5780820151818401526020810190506108b0565b50505050905090810190601f1680156108f85780820380516001836020036101000a031916815260200191505b5088810383528a818151815260200191508051906020019080838360005b83811015610931578082015181840152602081019050610916565b50505050905090810190601f16801561095e5780820380516001836020036101000a031916815260200191505b50888103825289818151815260200191508051906020019080838360005b8381101561099757808201518184015260208101905061097c565b50505050905090810190601f1680156109c45780820380516001836020036101000a031916815260200191505b509e50505050505050505050505050505060405180910390f35b610a0a600480360360208110156109f457600080fd5b8101908080359060200190929190505050611ead565b60405180806020018060200180602001806020018060200186810386528b818151815260200191508051906020019080838360005b83811015610a5a578082015181840152602081019050610a3f565b50505050905090810190601f168015610a875780820380516001836020036101000a031916815260200191505b5086810385528a818151815260200191508051906020019080838360005b83811015610ac0578082015181840152602081019050610aa5565b50505050905090810190601f168015610aed5780820380516001836020036101000a031916815260200191505b50868103845289818151815260200191508051906020019080838360005b83811015610b26578082015181840152602081019050610b0b565b50505050905090810190601f168015610b535780820380516001836020036101000a031916815260200191505b50868103835288818151815260200191508051906020019080838360005b83811015610b8c578082015181840152602081019050610b71565b50505050905090810190601f168015610bb95780820380516001836020036101000a031916815260200191505b50868103825287818151815260200191508051906020019080838360005b83811015610bf2578082015181840152602081019050610bd7565b50505050905090810190601f168015610c1f5780820380516001836020036101000a031916815260200191505b509a505050505050505050505060405180910390f35b610f4a600480360360a0811015610c4b57600080fd5b8101908080359060200190640100000000811115610c6857600080fd5b820183602082011115610c7a57600080fd5b80359060200191846001830284011164010000000083111715610c9c57600080fd5b91908080601f016020809104026020016040519081016040528093929190818152602001838380828437600081840152601f19601f82011690508083019250505050505050919291929080359060200190640100000000811115610cff57600080fd5b820183602082011115610d1157600080fd5b80359060200191846001830284011164010000000083111715610d3357600080fd5b91908080601f016020809104026020016040519081016040528093929190818152602001838380828437600081840152601f19601f82011690508083019250505050505050919291929080359060200190640100000000811115610d9657600080fd5b820183602082011115610da857600080fd5b80359060200191846001830284011164010000000083111715610dca57600080fd5b91908080601f016020809104026020016040519081016040528093929190818152602001838380828437600081840152601f19601f82011690508083019250505050505050919291929080359060200190640100000000811115610e2d57600080fd5b820183602082011115610e3f57600080fd5b80359060200191846001830284011164010000000083111715610e6157600080fd5b91908080601f016020809104026020016040519081016040528093929190818152602001838380828437600081840152601f19601f82011690508083019250505050505050919291929080359060200190640100000000811115610ec457600080fd5b820183602082011115610ed657600080fd5b80359060200191846001830284011164010000000083111715610ef857600080fd5b91908080601f016020809104026020016040519081016040528093929190818152602001838380828437600081840152601f19601f8201169050808301925050505050505091929192905050506121db565b005b60608060405180602001604052806000815250905060008090505b60015481116112f257610f78612392565b600560008381526020019081526020016000206040518060a0016040529081600082018054600181600116156101000203166002900480601f01602080910402602001604051908101604052809291908181526020018280546001816001161561010002031660029004801561102f5780601f106110045761010080835404028352916020019161102f565b820191906000526020600020905b81548152906001019060200180831161101257829003601f168201915b50505050508152602001600182018054600181600116156101000203166002900480601f0160208091040260200160405190810160405280929190818152602001828054600181600116156101000203166002900480156110d15780601f106110a6576101008083540402835291602001916110d1565b820191906000526020600020905b8154815290600101906020018083116110b457829003601f168201915b50505050508152602001600282018054600181600116156101000203166002900480601f0160208091040260200160405190810160405280929190818152602001828054600181600116156101000203166002900480156111735780601f1061114857610100808354040283529160200191611173565b820191906000526020600020905b81548152906001019060200180831161115657829003601f168201915b50505050508152602001600382018054600181600116156101000203166002900480601f0160208091040260200160405190810160405280929190818152602001828054600181600116156101000203166002900480156112155780601f106111ea57610100808354040283529160200191611215565b820191906000526020600020905b8154815290600101906020018083116111f857829003601f168201915b50505050508152602001600482018054600181600116156101000203166002900480601f0160208091040260200160405190810160405280929190818152602001828054600181600116156101000203166002900480156112b75780601f1061128c576101008083540402835291602001916112b7565b820191906000526020600020905b81548152906001019060200180831161129a57829003601f168201915b5050505050815250509050848051906020012081600001518051906020012014156112e457806080015192505b508080600101915050610f67565b5080915050919050565b600080600090505b60005481116117f5576113156123c1565b600460008381526020019081526020016000206040518060e0016040529081600082018054600181600116156101000203166002900480601f0160208091040260200160405190810160405280929190818152602001828054600181600116156101000203166002900480156113cc5780601f106113a1576101008083540402835291602001916113cc565b820191906000526020600020905b8154815290600101906020018083116113af57829003601f168201915b50505050508152602001600182018054600181600116156101000203166002900480601f01602080910402602001604051908101604052809291908181526020018280546001816001161561010002031660029004801561146e5780601f106114435761010080835404028352916020019161146e565b820191906000526020600020905b81548152906001019060200180831161145157829003601f168201915b50505050508152602001600282018054600181600116156101000203166002900480601f0160208091040260200160405190810160405280929190818152602001828054600181600116156101000203166002900480156115105780601f106114e557610100808354040283529160200191611510565b820191906000526020600020905b8154815290600101906020018083116114f357829003601f168201915b50505050508152602001600382018054600181600116156101000203166002900480601f0160208091040260200160405190810160405280929190818152602001828054600181600116156101000203166002900480156115b25780601f10611587576101008083540402835291602001916115b2565b820191906000526020600020905b81548152906001019060200180831161159557829003601f168201915b50505050508152602001600482018054600181600116156101000203166002900480601f0160208091040260200160405190810160405280929190818152602001828054600181600116156101000203166002900480156116545780601f1061162957610100808354040283529160200191611654565b820191906000526020600020905b81548152906001019060200180831161163757829003601f168201915b50505050508152602001600582018054600181600116156101000203166002900480601f0160208091040260200160405190810160405280929190818152602001828054600181600116156101000203166002900480156116f65780601f106116cb576101008083540402835291602001916116f6565b820191906000526020600020905b8154815290600101906020018083116116d957829003601f168201915b50505050508152602001600682018054600181600116156101000203166002900480601f0160208091040260200160405190810160405280929190818152602001828054600181600116156101000203166002900480156117985780601f1061176d57610100808354040283529160200191611798565b820191906000526020600020905b81548152906001019060200180831161177b57829003601f168201915b5050505050815250509050838051906020012081600001518051906020012014156117e7577f56616c696400000000000000000000000000000000000000000000000000000092505050611807565b508080600101915050611304565b50600082805190602001209050809150505b919050565b60008081548092919060010191905055506118256123c1565b6040518060e001604052808981526020018881526020018781526020018681526020018581526020018481526020018381525090506002819080600181540180825580915050906001820390600052602060002090600702016000909192909190915060008201518160000190805190602001906118a49291906123fe565b5060208201518160010190805190602001906118c19291906123fe565b5060408201518160020190805190602001906118de9291906123fe565b5060608201518160030190805190602001906118fb9291906123fe565b5060808201518160040190805190602001906119189291906123fe565b5060a08201518160050190805190602001906119359291906123fe565b5060c08201518160060190805190602001906119529291906123fe565b5050505080600460008054815260200190815260200160002060008201518160000190805190602001906119879291906123fe565b5060208201518160010190805190602001906119a49291906123fe565b5060408201518160020190805190602001906119c19291906123fe565b5060608201518160030190805190602001906119de9291906123fe565b5060808201518160040190805190602001906119fb9291906123fe565b5060a0820151816005019080519060200190611a189291906123fe565b5060c0820151816006019080519060200190611a359291906123fe565b509050505050505050505050565b6004602052806000526040600020600091509050806000018054600181600116156101000203166002900480601f016020809104026020016040519081016040528092919081815260200182805460018160011615610100020316600290048015611aef5780601f10611ac457610100808354040283529160200191611aef565b820191906000526020600020905b815481529060010190602001808311611ad257829003601f168201915b505050505090806001018054600181600116156101000203166002900480601f016020809104026020016040519081016040528092919081815260200182805460018160011615610100020316600290048015611b8d5780601f10611b6257610100808354040283529160200191611b8d565b820191906000526020600020905b815481529060010190602001808311611b7057829003601f168201915b505050505090806002018054600181600116156101000203166002900480601f016020809104026020016040519081016040528092919081815260200182805460018160011615610100020316600290048015611c2b5780601f10611c0057610100808354040283529160200191611c2b565b820191906000526020600020905b815481529060010190602001808311611c0e57829003601f168201915b505050505090806003018054600181600116156101000203166002900480601f016020809104026020016040519081016040528092919081815260200182805460018160011615610100020316600290048015611cc95780601f10611c9e57610100808354040283529160200191611cc9565b820191906000526020600020905b815481529060010190602001808311611cac57829003601f168201915b505050505090806004018054600181600116156101000203166002900480601f016020809104026020016040519081016040528092919081815260200182805460018160011615610100020316600290048015611d675780601f10611d3c57610100808354040283529160200191611d67565b820191906000526020600020905b815481529060010190602001808311611d4a57829003601f168201915b505050505090806005018054600181600116156101000203166002900480601f016020809104026020016040519081016040528092919081815260200182805460018160011615610100020316600290048015611e055780601f10611dda57610100808354040283529160200191611e05565b820191906000526020600020905b815481529060010190602001808311611de857829003601f168201915b505050505090806006018054600181600116156101000203166002900480601f016020809104026020016040519081016040528092919081815260200182805460018160011615610100020316600290048015611ea35780601f10611e7857610100808354040283529160200191611ea3565b820191906000526020600020905b815481529060010190602001808311611e8657829003601f168201915b5050505050905087565b6005602052806000526040600020600091509050806000018054600181600116156101000203166002900480601f016020809104026020016040519081016040528092919081815260200182805460018160011615610100020316600290048015611f595780601f10611f2e57610100808354040283529160200191611f59565b820191906000526020600020905b815481529060010190602001808311611f3c57829003601f168201915b505050505090806001018054600181600116156101000203166002900480601f016020809104026020016040519081016040528092919081815260200182805460018160011615610100020316600290048015611ff75780601f10611fcc57610100808354040283529160200191611ff7565b820191906000526020600020905b815481529060010190602001808311611fda57829003601f168201915b505050505090806002018054600181600116156101000203166002900480601f0160208091040260200160405190810160405280929190818152602001828054600181600116156101000203166002900480156120955780601f1061206a57610100808354040283529160200191612095565b820191906000526020600020905b81548152906001019060200180831161207857829003601f168201915b505050505090806003018054600181600116156101000203166002900480601f0160208091040260200160405190810160405280929190818152602001828054600181600116156101000203166002900480156121335780601f1061210857610100808354040283529160200191612133565b820191906000526020600020905b81548152906001019060200180831161211657829003601f168201915b505050505090806004018054600181600116156101000203166002900480601f0160208091040260200160405190810160405280929190818152602001828054600181600116156101000203166002900480156121d15780601f106121a6576101008083540402835291602001916121d1565b820191906000526020600020905b8154815290600101906020018083116121b457829003601f168201915b5050505050905085565b6001600081548092919060010191905055506121f5612392565b6040518060a001604052808781526020018681526020018581526020018481526020018381525090506003819080600181540180825580915050906001820390600052602060002090600502016000909192909190915060008201518160000190805190602001906122689291906123fe565b5060208201518160010190805190602001906122859291906123fe565b5060408201518160020190805190602001906122a29291906123fe565b5060608201518160030190805190602001906122bf9291906123fe565b5060808201518160040190805190602001906122dc9291906123fe565b505050508060056000600154815260200190815260200160002060008201518160000190805190602001906123129291906123fe565b50602082015181600101908051906020019061232f9291906123fe565b50604082015181600201908051906020019061234c9291906123fe565b5060608201518160030190805190602001906123699291906123fe565b5060808201518160040190805190602001906123869291906123fe565b50905050505050505050565b6040518060a0016040528060608152602001606081526020016060815260200160608152602001606081525090565b6040518060e00160405280606081526020016060815260200160608152602001606081526020016060815260200160608152602001606081525090565b828054600181600116156101000203166002900490600052602060002090601f016020900481019282601f1061243f57805160ff191683800117855561246d565b8280016001018555821561246d579182015b8281111561246c578251825591602001919060010190612451565b5b50905061247a919061247e565b5090565b6124a091905b8082111561249c576000816000905550600101612484565b5090565b9056fea165627a7a723058204a82d45d43a61ad729f010c9ec5212f6836ae0cee734ac8cafedc8d80ba9a0cc0029",
  "source": "pragma solidity ^0.5.8; \n//Smart Contract to create a product and validating if product is valid by giving Product ID\ncontract RolexBlockChain { \n    //Data Structure of the Product\n    struct productStruct {\n        string productUniqueCode;\n        string productName;\n        string productDescription;\n\t\tstring productType;\n        string manufacturer;\n\t\tstring dateOfManufacture;\n\t\tstring valueOfProduct;\n    }\n\t\n    //Data Structure for storing Transactions of a Product\n    struct productTransaction {\n        string productUniqueCode;\n        string dateOfTransaction;\n        string transactionNotes;\n\t\tstring transactionFrom;\n\t\tstring transactionTo;\n    }\n\t\n    //Counters to have Key in Mapping Variable\n    uint nextProduct = 0;\n    uint nextTransaction = 0;\n    \n    //Array for both structures\n    productStruct[] productStructs;\n    productTransaction[] productTransactions;\n    \n    // Mapping Variables to have Key (Integer value) and Value as Product Structure\n    mapping(uint => productStruct) public productMap;\n    mapping(uint => productTransaction) public productMapTr;\n\n    // Function to create a new Product\n    function createNewProduct(string memory pUniqueCode, string memory pName, string memory pDescription, string memory pType, string memory pManufacturer, string memory pDateOfManufacture, string memory pValueOfProduct) public { \n        nextProduct++;\n        productStruct memory newProduct = productStruct ({\n            productUniqueCode: pUniqueCode,\n            productName: pName,\n            productDescription: pDescription,\n\t\t\tproductType: pType,\n            manufacturer: pManufacturer,\n\t\t\tdateOfManufacture: pDateOfManufacture,\n\t\t\tvalueOfProduct: pValueOfProduct\n        });\n        productStructs.push(newProduct);\n        productMap[nextProduct]=newProduct;\n    }\n    // Function to record a Transaction\n    function recordTransaction(string memory pUniqueCode,string memory pTransactionDate, string memory pNotes, string memory pFrom, string memory pTo ) public { \n        nextTransaction++;\n        productTransaction memory newTransaction = productTransaction ({\n            productUniqueCode: pUniqueCode,\n            dateOfTransaction: pTransactionDate,\n            transactionNotes: pNotes,\n\t\t\ttransactionFrom: pFrom,\n            transactionTo: pTo\n        });\n        productTransactions.push(newTransaction);\n        productMapTr[nextTransaction]=newTransaction;\n    }\n\n    //Function to validate a productUniqueCode is valid or not\n    function isProductValid(string memory productUniqueCode) view public returns (bytes32) {\n        for(uint i = 0; i <= nextProduct;  i++) {\n        \n        productStruct memory currentProduct = productMap[i];\n        //return \"Your are Valid\";\n        if (keccak256(bytes(currentProduct.productUniqueCode))==keccak256(bytes(productUniqueCode))){\n            return \"Valid\";\n        }\n        }\n        bytes32 temp = keccak256(bytes(productUniqueCode));\n        return temp;\n        \n    }\n    \n        //Function to get current location\n    function getProductCurrentLocation(string memory productUniqueCode) view public returns (string memory) {\n        string memory TransactionDetails;\n        TransactionDetails=\"\";\n        \n        for(uint i = 0; i <= nextTransaction;  i++) {\n        \n        productTransaction memory currentTransaction = productMapTr[i];\n        \n        if (keccak256(bytes(currentTransaction.productUniqueCode))==keccak256(bytes(productUniqueCode))){\n            \n            TransactionDetails = currentTransaction.transactionTo;\n        }\n        }\n        \n        return TransactionDetails;\n    }\n}",
  "sourcePath": "/home/paperspace/HelloWorld1/contracts/RolexChain.sol",
  "compiler": {
    "name": "solc",
    "version": "0.5.8+commit.23d335f2.Emscripten.clang"
  },
  "schemaVersion": "3.0.16",
  "updatedAt": "2019-10-19T06:04:07.128Z",
  "devdoc": {
    "methods": {}
  },
  "userdoc": {
    "methods": {}
  }
}