{
  "contractName": "RolexChain",
  "abi": [
    {
      "constant": true,
      "inputs": [
        {
          "name": "",
          "type": "uint256"
        }
      ],
      "name": "productMap",
      "outputs": [
        {
          "name": "productUniqueCode",
          "type": "string"
        },
        {
          "name": "productName",
          "type": "string"
        },
        {
          "name": "productDescription",
          "type": "string"
        },
        {
          "name": "productType",
          "type": "string"
        },
        {
          "name": "manufacturer",
          "type": "string"
        },
        {
          "name": "dateOfManufacture",
          "type": "string"
        },
        {
          "name": "valueOfProduct",
          "type": "string"
        }
      ],
      "payable": false,
      "stateMutability": "view",
      "type": "function"
    },
    {
      "constant": true,
      "inputs": [
        {
          "name": "",
          "type": "uint256"
        }
      ],
      "name": "productMapTr",
      "outputs": [
        {
          "name": "productUniqueCode",
          "type": "string"
        },
        {
          "name": "dateOfTransaction",
          "type": "string"
        },
        {
          "name": "transactionNotes",
          "type": "string"
        },
        {
          "name": "transactionFrom",
          "type": "string"
        },
        {
          "name": "transactionTo",
          "type": "string"
        }
      ],
      "payable": false,
      "stateMutability": "view",
      "type": "function"
    },
    {
      "constant": false,
      "inputs": [
        {
          "name": "pUniqueCode",
          "type": "string"
        },
        {
          "name": "pName",
          "type": "string"
        },
        {
          "name": "pDescription",
          "type": "string"
        },
        {
          "name": "pType",
          "type": "string"
        },
        {
          "name": "pManufacturer",
          "type": "string"
        },
        {
          "name": "pDateOfManufacture",
          "type": "string"
        },
        {
          "name": "pValueOfProduct",
          "type": "string"
        }
      ],
      "name": "createNewProduct",
      "outputs": [],
      "payable": false,
      "stateMutability": "nonpayable",
      "type": "function"
    },
    {
      "constant": false,
      "inputs": [
        {
          "name": "pUniqueCode",
          "type": "string"
        },
        {
          "name": "pTransactionDate",
          "type": "string"
        },
        {
          "name": "pNotes",
          "type": "string"
        },
        {
          "name": "pFrom",
          "type": "string"
        },
        {
          "name": "pTo",
          "type": "string"
        }
      ],
      "name": "recordTransaction",
      "outputs": [],
      "payable": false,
      "stateMutability": "nonpayable",
      "type": "function"
    },
    {
      "constant": false,
      "inputs": [],
      "name": "fillProducts",
      "outputs": [],
      "payable": false,
      "stateMutability": "nonpayable",
      "type": "function"
    },
    {
      "constant": true,
      "inputs": [
        {
          "name": "productUniqueCode",
          "type": "string"
        }
      ],
      "name": "isProductValid",
      "outputs": [
        {
          "name": "",
          "type": "string"
        }
      ],
      "payable": false,
      "stateMutability": "view",
      "type": "function"
    },
    {
      "constant": true,
      "inputs": [
        {
          "name": "productUniqueCode",
          "type": "string"
        }
      ],
      "name": "getTransactionDetails",
      "outputs": [
        {
          "name": "",
          "type": "string"
        }
      ],
      "payable": false,
      "stateMutability": "view",
      "type": "function"
    },
    {
      "constant": true,
      "inputs": [
        {
          "name": "productUniqueCode",
          "type": "string"
        }
      ],
      "name": "getProductCurrentLocation",
      "outputs": [
        {
          "name": "",
          "type": "string"
        }
      ],
      "payable": false,
      "stateMutability": "view",
      "type": "function"
    }
  ],
  "bytecode": "0x608060405260008055600060015534801561001957600080fd5b50612e33806100296000396000f3fe608060405234801561001057600080fd5b50600436106100885760003560e01c8063d7f0719d1161005b578063d7f0719d14610744578063e11bf0d314610a73578063e205f39914610cca578063e4daff8f14610fe157610088565b806307195f5c1461008d5780631c435153146101c15780633fb366f7146102f5578063c281cea11461073a575b600080fd5b610146600480360360208110156100a357600080fd5b81019080803590602001906401000000008111156100c057600080fd5b8201836020820111156100d257600080fd5b803590602001918460018302840111640100000000831117156100f457600080fd5b91908080601f016020809104026020016040519081016040528093929190818152602001838380828437600081840152601f19601f820116905080830192505050505050509192919290505050611115565b6040518080602001828103825283818151815260200191508051906020019080838360005b8381101561018657808201518184015260208101905061016b565b50505050905090810190601f1680156101b35780820380516001836020036101000a031916815260200191505b509250505060405180910390f35b61027a600480360360208110156101d757600080fd5b81019080803590602001906401000000008111156101f457600080fd5b82018360208201111561020657600080fd5b8035906020019184600183028401116401000000008311171561022857600080fd5b91908080601f016020809104026020016040519081016040528093929190818152602001838380828437600081840152601f19601f8201169050808301925050505050505091929192905050506114c5565b6040518080602001828103825283818151815260200191508051906020019080838360005b838110156102ba57808201518184015260208101905061029f565b50505050905090810190601f1680156102e75780820380516001836020036101000a031916815260200191505b509250505060405180910390f35b610738600480360360e081101561030b57600080fd5b810190808035906020019064010000000081111561032857600080fd5b82018360208201111561033a57600080fd5b8035906020019184600183028401116401000000008311171561035c57600080fd5b91908080601f016020809104026020016040519081016040528093929190818152602001838380828437600081840152601f19601f820116905080830192505050505050509192919290803590602001906401000000008111156103bf57600080fd5b8201836020820111156103d157600080fd5b803590602001918460018302840111640100000000831117156103f357600080fd5b91908080601f016020809104026020016040519081016040528093929190818152602001838380828437600081840152601f19601f8201169050808301925050505050505091929192908035906020019064010000000081111561045657600080fd5b82018360208201111561046857600080fd5b8035906020019184600183028401116401000000008311171561048a57600080fd5b91908080601f016020809104026020016040519081016040528093929190818152602001838380828437600081840152601f19601f820116905080830192505050505050509192919290803590602001906401000000008111156104ed57600080fd5b8201836020820111156104ff57600080fd5b8035906020019184600183028401116401000000008311171561052157600080fd5b91908080601f016020809104026020016040519081016040528093929190818152602001838380828437600081840152601f19601f8201169050808301925050505050505091929192908035906020019064010000000081111561058457600080fd5b82018360208201111561059657600080fd5b803590602001918460018302840111640100000000831117156105b857600080fd5b91908080601f016020809104026020016040519081016040528093929190818152602001838380828437600081840152601f19601f8201169050808301925050505050505091929192908035906020019064010000000081111561061b57600080fd5b82018360208201111561062d57600080fd5b8035906020019184600183028401116401000000008311171561064f57600080fd5b91908080601f016020809104026020016040519081016040528093929190818152602001838380828437600081840152601f19601f820116905080830192505050505050509192919290803590602001906401000000008111156106b257600080fd5b8201836020820111156106c457600080fd5b803590602001918460018302840111640100000000831117156106e657600080fd5b91908080601f016020809104026020016040519081016040528093929190818152602001838380828437600081840152601f19601f820116905080830192505050505050509192919290505050611a12565b005b610742611c49565b005b6107706004803603602081101561075a57600080fd5b8101908080359060200190929190505050611fcf565b604051808060200180602001806020018060200180602001806020018060200188810388528f818151815260200191508051906020019080838360005b838110156107c85780820151818401526020810190506107ad565b50505050905090810190601f1680156107f55780820380516001836020036101000a031916815260200191505b5088810387528e818151815260200191508051906020019080838360005b8381101561082e578082015181840152602081019050610813565b50505050905090810190601f16801561085b5780820380516001836020036101000a031916815260200191505b5088810386528d818151815260200191508051906020019080838360005b83811015610894578082015181840152602081019050610879565b50505050905090810190601f1680156108c15780820380516001836020036101000a031916815260200191505b5088810385528c818151815260200191508051906020019080838360005b838110156108fa5780820151818401526020810190506108df565b50505050905090810190601f1680156109275780820380516001836020036101000a031916815260200191505b5088810384528b818151815260200191508051906020019080838360005b83811015610960578082015181840152602081019050610945565b50505050905090810190601f16801561098d5780820380516001836020036101000a031916815260200191505b5088810383528a818151815260200191508051906020019080838360005b838110156109c65780820151818401526020810190506109ab565b50505050905090810190601f1680156109f35780820380516001836020036101000a031916815260200191505b50888103825289818151815260200191508051906020019080838360005b83811015610a2c578082015181840152602081019050610a11565b50505050905090810190601f168015610a595780820380516001836020036101000a031916815260200191505b509e50505050505050505050505050505060405180910390f35b610a9f60048036036020811015610a8957600080fd5b8101908080359060200190929190505050612439565b60405180806020018060200180602001806020018060200186810386528b818151815260200191508051906020019080838360005b83811015610aef578082015181840152602081019050610ad4565b50505050905090810190601f168015610b1c5780820380516001836020036101000a031916815260200191505b5086810385528a818151815260200191508051906020019080838360005b83811015610b55578082015181840152602081019050610b3a565b50505050905090810190601f168015610b825780820380516001836020036101000a031916815260200191505b50868103845289818151815260200191508051906020019080838360005b83811015610bbb578082015181840152602081019050610ba0565b50505050905090810190601f168015610be85780820380516001836020036101000a031916815260200191505b50868103835288818151815260200191508051906020019080838360005b83811015610c21578082015181840152602081019050610c06565b50505050905090810190601f168015610c4e5780820380516001836020036101000a031916815260200191505b50868103825287818151815260200191508051906020019080838360005b83811015610c87578082015181840152602081019050610c6c565b50505050905090810190601f168015610cb45780820380516001836020036101000a031916815260200191505b509a505050505050505050505060405180910390f35b610fdf600480360360a0811015610ce057600080fd5b8101908080359060200190640100000000811115610cfd57600080fd5b820183602082011115610d0f57600080fd5b80359060200191846001830284011164010000000083111715610d3157600080fd5b91908080601f016020809104026020016040519081016040528093929190818152602001838380828437600081840152601f19601f82011690508083019250505050505050919291929080359060200190640100000000811115610d9457600080fd5b820183602082011115610da657600080fd5b80359060200191846001830284011164010000000083111715610dc857600080fd5b91908080601f016020809104026020016040519081016040528093929190818152602001838380828437600081840152601f19601f82011690508083019250505050505050919291929080359060200190640100000000811115610e2b57600080fd5b820183602082011115610e3d57600080fd5b80359060200191846001830284011164010000000083111715610e5f57600080fd5b91908080601f016020809104026020016040519081016040528093929190818152602001838380828437600081840152601f19601f82011690508083019250505050505050919291929080359060200190640100000000811115610ec257600080fd5b820183602082011115610ed457600080fd5b80359060200191846001830284011164010000000083111715610ef657600080fd5b91908080601f016020809104026020016040519081016040528093929190818152602001838380828437600081840152601f19601f82011690508083019250505050505050919291929080359060200190640100000000811115610f5957600080fd5b820183602082011115610f6b57600080fd5b80359060200191846001830284011164010000000083111715610f8d57600080fd5b91908080601f016020809104026020016040519081016040528093929190818152602001838380828437600081840152601f19601f820116905080830192505050505050509192919290505050612767565b005b61109a60048036036020811015610ff757600080fd5b810190808035906020019064010000000081111561101457600080fd5b82018360208201111561102657600080fd5b8035906020019184600183028401116401000000008311171561104857600080fd5b91908080601f016020809104026020016040519081016040528093929190818152602001838380828437600081840152601f19601f82011690508083019250505050505050919291929050505061291e565b6040518080602001828103825283818151815260200191508051906020019080838360005b838110156110da5780820151818401526020810190506110bf565b50505050905090810190601f1680156111075780820380516001836020036101000a031916815260200191505b509250505060405180910390f35b60608060405180602001604052806000815250905060008090505b60015481116114bb57611141612cce565b600560008381526020019081526020016000206040518060a0016040529081600082018054600181600116156101000203166002900480601f0160208091040260200160405190810160405280929190818152602001828054600181600116156101000203166002900480156111f85780601f106111cd576101008083540402835291602001916111f8565b820191906000526020600020905b8154815290600101906020018083116111db57829003601f168201915b50505050508152602001600182018054600181600116156101000203166002900480601f01602080910402602001604051908101604052809291908181526020018280546001816001161561010002031660029004801561129a5780601f1061126f5761010080835404028352916020019161129a565b820191906000526020600020905b81548152906001019060200180831161127d57829003601f168201915b50505050508152602001600282018054600181600116156101000203166002900480601f01602080910402602001604051908101604052809291908181526020018280546001816001161561010002031660029004801561133c5780601f106113115761010080835404028352916020019161133c565b820191906000526020600020905b81548152906001019060200180831161131f57829003601f168201915b50505050508152602001600382018054600181600116156101000203166002900480601f0160208091040260200160405190810160405280929190818152602001828054600181600116156101000203166002900480156113de5780601f106113b3576101008083540402835291602001916113de565b820191906000526020600020905b8154815290600101906020018083116113c157829003601f168201915b50505050508152602001600482018054600181600116156101000203166002900480601f0160208091040260200160405190810160405280929190818152602001828054600181600116156101000203166002900480156114805780601f1061145557610100808354040283529160200191611480565b820191906000526020600020905b81548152906001019060200180831161146357829003601f168201915b5050505050815250509050848051906020012081600001518051906020012014156114ad57806080015192505b508080600101915050611130565b5080915050919050565b606060008090505b60005481116119d3576114de612cfd565b600460008381526020019081526020016000206040518060e0016040529081600082018054600181600116156101000203166002900480601f0160208091040260200160405190810160405280929190818152602001828054600181600116156101000203166002900480156115955780601f1061156a57610100808354040283529160200191611595565b820191906000526020600020905b81548152906001019060200180831161157857829003601f168201915b50505050508152602001600182018054600181600116156101000203166002900480601f0160208091040260200160405190810160405280929190818152602001828054600181600116156101000203166002900480156116375780601f1061160c57610100808354040283529160200191611637565b820191906000526020600020905b81548152906001019060200180831161161a57829003601f168201915b50505050508152602001600282018054600181600116156101000203166002900480601f0160208091040260200160405190810160405280929190818152602001828054600181600116156101000203166002900480156116d95780601f106116ae576101008083540402835291602001916116d9565b820191906000526020600020905b8154815290600101906020018083116116bc57829003601f168201915b50505050508152602001600382018054600181600116156101000203166002900480601f01602080910402602001604051908101604052809291908181526020018280546001816001161561010002031660029004801561177b5780601f106117505761010080835404028352916020019161177b565b820191906000526020600020905b81548152906001019060200180831161175e57829003601f168201915b50505050508152602001600482018054600181600116156101000203166002900480601f01602080910402602001604051908101604052809291908181526020018280546001816001161561010002031660029004801561181d5780601f106117f25761010080835404028352916020019161181d565b820191906000526020600020905b81548152906001019060200180831161180057829003601f168201915b50505050508152602001600582018054600181600116156101000203166002900480601f0160208091040260200160405190810160405280929190818152602001828054600181600116156101000203166002900480156118bf5780601f10611894576101008083540402835291602001916118bf565b820191906000526020600020905b8154815290600101906020018083116118a257829003601f168201915b50505050508152602001600682018054600181600116156101000203166002900480601f0160208091040260200160405190810160405280929190818152602001828054600181600116156101000203166002900480156119615780601f1061193657610100808354040283529160200191611961565b820191906000526020600020905b81548152906001019060200180831161194457829003601f168201915b5050505050815250509050838051906020012081600001518051906020012014156119c5576040518060400160405280600581526020017f56616c696400000000000000000000000000000000000000000000000000000081525092505050611a0d565b5080806001019150506114cd565b506040518060400160405280601381526020017f4e6f7420612076616c69642050726f647563740000000000000000000000000081525090505b919050565b6000808154809291906001019190505550611a2b612cfd565b6040518060e00160405280898152602001888152602001878152602001868152602001858152602001848152602001838152509050600281908060018154018082558091505090600182039060005260206000209060070201600090919290919091506000820151816000019080519060200190611aaa929190612d3a565b506020820151816001019080519060200190611ac7929190612d3a565b506040820151816002019080519060200190611ae4929190612d3a565b506060820151816003019080519060200190611b01929190612d3a565b506080820151816004019080519060200190611b1e929190612d3a565b5060a0820151816005019080519060200190611b3b929190612d3a565b5060c0820151816006019080519060200190611b58929190612d3a565b505050508060046000805481526020019081526020016000206000820151816000019080519060200190611b8d929190612d3a565b506020820151816001019080519060200190611baa929190612d3a565b506040820151816002019080519060200190611bc7929190612d3a565b506060820151816003019080519060200190611be4929190612d3a565b506080820151816004019080519060200190611c01929190612d3a565b5060a0820151816005019080519060200190611c1e929190612d3a565b5060c0820151816006019080519060200190611c3b929190612d3a565b509050505050505050505050565b6000808154809291906001019190505550611c62612cfd565b6040518060e001604052806040518060400160405280601081526020017f41442d53482d39492d313030303030310000000000000000000000000000000081525081526020016040518060400160405280601881526020017f41444944415320392053484f4520434f4c4f5220424c554500000000000000008152508152602001604051806060016040528060288152602001612de06028913981526020016040518060400160405280600581526020017f53484f455300000000000000000000000000000000000000000000000000000081525081526020016040518060400160405280600681526020017f414449444153000000000000000000000000000000000000000000000000000081525081526020016040518060400160405280600a81526020017f323031392f30312f30350000000000000000000000000000000000000000000081525081526020016040518060400160405280600781526020017f243135302e3030000000000000000000000000000000000000000000000000008152508152509050600281908060018154018082558091505090600182039060005260206000209060070201600090919290919091506000820151816000019080519060200190611e37929190612d3a565b506020820151816001019080519060200190611e54929190612d3a565b506040820151816002019080519060200190611e71929190612d3a565b506060820151816003019080519060200190611e8e929190612d3a565b506080820151816004019080519060200190611eab929190612d3a565b5060a0820151816005019080519060200190611ec8929190612d3a565b5060c0820151816006019080519060200190611ee5929190612d3a565b505050508060046000805481526020019081526020016000206000820151816000019080519060200190611f1a929190612d3a565b506020820151816001019080519060200190611f37929190612d3a565b506040820151816002019080519060200190611f54929190612d3a565b506060820151816003019080519060200190611f71929190612d3a565b506080820151816004019080519060200190611f8e929190612d3a565b5060a0820151816005019080519060200190611fab929190612d3a565b5060c0820151816006019080519060200190611fc8929190612d3a565b5090505050565b6004602052806000526040600020600091509050806000018054600181600116156101000203166002900480601f01602080910402602001604051908101604052809291908181526020018280546001816001161561010002031660029004801561207b5780601f106120505761010080835404028352916020019161207b565b820191906000526020600020905b81548152906001019060200180831161205e57829003601f168201915b505050505090806001018054600181600116156101000203166002900480601f0160208091040260200160405190810160405280929190818152602001828054600181600116156101000203166002900480156121195780601f106120ee57610100808354040283529160200191612119565b820191906000526020600020905b8154815290600101906020018083116120fc57829003601f168201915b505050505090806002018054600181600116156101000203166002900480601f0160208091040260200160405190810160405280929190818152602001828054600181600116156101000203166002900480156121b75780601f1061218c576101008083540402835291602001916121b7565b820191906000526020600020905b81548152906001019060200180831161219a57829003601f168201915b505050505090806003018054600181600116156101000203166002900480601f0160208091040260200160405190810160405280929190818152602001828054600181600116156101000203166002900480156122555780601f1061222a57610100808354040283529160200191612255565b820191906000526020600020905b81548152906001019060200180831161223857829003601f168201915b505050505090806004018054600181600116156101000203166002900480601f0160208091040260200160405190810160405280929190818152602001828054600181600116156101000203166002900480156122f35780601f106122c8576101008083540402835291602001916122f3565b820191906000526020600020905b8154815290600101906020018083116122d657829003601f168201915b505050505090806005018054600181600116156101000203166002900480601f0160208091040260200160405190810160405280929190818152602001828054600181600116156101000203166002900480156123915780601f1061236657610100808354040283529160200191612391565b820191906000526020600020905b81548152906001019060200180831161237457829003601f168201915b505050505090806006018054600181600116156101000203166002900480601f01602080910402602001604051908101604052809291908181526020018280546001816001161561010002031660029004801561242f5780601f106124045761010080835404028352916020019161242f565b820191906000526020600020905b81548152906001019060200180831161241257829003601f168201915b5050505050905087565b6005602052806000526040600020600091509050806000018054600181600116156101000203166002900480601f0160208091040260200160405190810160405280929190818152602001828054600181600116156101000203166002900480156124e55780601f106124ba576101008083540402835291602001916124e5565b820191906000526020600020905b8154815290600101906020018083116124c857829003601f168201915b505050505090806001018054600181600116156101000203166002900480601f0160208091040260200160405190810160405280929190818152602001828054600181600116156101000203166002900480156125835780601f1061255857610100808354040283529160200191612583565b820191906000526020600020905b81548152906001019060200180831161256657829003601f168201915b505050505090806002018054600181600116156101000203166002900480601f0160208091040260200160405190810160405280929190818152602001828054600181600116156101000203166002900480156126215780601f106125f657610100808354040283529160200191612621565b820191906000526020600020905b81548152906001019060200180831161260457829003601f168201915b505050505090806003018054600181600116156101000203166002900480601f0160208091040260200160405190810160405280929190818152602001828054600181600116156101000203166002900480156126bf5780601f10612694576101008083540402835291602001916126bf565b820191906000526020600020905b8154815290600101906020018083116126a257829003601f168201915b505050505090806004018054600181600116156101000203166002900480601f01602080910402602001604051908101604052809291908181526020018280546001816001161561010002031660029004801561275d5780601f106127325761010080835404028352916020019161275d565b820191906000526020600020905b81548152906001019060200180831161274057829003601f168201915b5050505050905085565b600160008154809291906001019190505550612781612cce565b6040518060a001604052808781526020018681526020018581526020018481526020018381525090506003819080600181540180825580915050906001820390600052602060002090600502016000909192909190915060008201518160000190805190602001906127f4929190612d3a565b506020820151816001019080519060200190612811929190612d3a565b50604082015181600201908051906020019061282e929190612d3a565b50606082015181600301908051906020019061284b929190612d3a565b506080820151816004019080519060200190612868929190612d3a565b5050505080600560006001548152602001908152602001600020600082015181600001908051906020019061289e929190612d3a565b5060208201518160010190805190602001906128bb929190612d3a565b5060408201518160020190805190602001906128d8929190612d3a565b5060608201518160030190805190602001906128f5929190612d3a565b506080820151816004019080519060200190612912929190612d3a565b50905050505050505050565b60608060405180602001604052806000815250905060008090505b6001548111612cc45761294a612cce565b600560008381526020019081526020016000206040518060a0016040529081600082018054600181600116156101000203166002900480601f016020809104026020016040519081016040528092919081815260200182805460018160011615610100020316600290048015612a015780601f106129d657610100808354040283529160200191612a01565b820191906000526020600020905b8154815290600101906020018083116129e457829003601f168201915b50505050508152602001600182018054600181600116156101000203166002900480601f016020809104026020016040519081016040528092919081815260200182805460018160011615610100020316600290048015612aa35780601f10612a7857610100808354040283529160200191612aa3565b820191906000526020600020905b815481529060010190602001808311612a8657829003601f168201915b50505050508152602001600282018054600181600116156101000203166002900480601f016020809104026020016040519081016040528092919081815260200182805460018160011615610100020316600290048015612b455780601f10612b1a57610100808354040283529160200191612b45565b820191906000526020600020905b815481529060010190602001808311612b2857829003601f168201915b50505050508152602001600382018054600181600116156101000203166002900480601f016020809104026020016040519081016040528092919081815260200182805460018160011615610100020316600290048015612be75780601f10612bbc57610100808354040283529160200191612be7565b820191906000526020600020905b815481529060010190602001808311612bca57829003601f168201915b50505050508152602001600482018054600181600116156101000203166002900480601f016020809104026020016040519081016040528092919081815260200182805460018160011615610100020316600290048015612c895780601f10612c5e57610100808354040283529160200191612c89565b820191906000526020600020905b815481529060010190602001808311612c6c57829003601f168201915b505050505081525050905084805190602001208160000151805190602001201415612cb657806080015192505b508080600101915050612939565b5080915050919050565b6040518060a0016040528060608152602001606081526020016060815260200160608152602001606081525090565b6040518060e00160405280606081526020016060815260200160608152602001606081526020016060815260200160608152602001606081525090565b828054600181600116156101000203166002900490600052602060002090601f016020900481019282601f10612d7b57805160ff1916838001178555612da9565b82800160010185558215612da9579182015b82811115612da8578251825591602001919060010190612d8d565b5b509050612db69190612dba565b5090565b612ddc91905b80821115612dd8576000816000905550600101612dc0565b5090565b9056fe41444944415320392053484f4520434f4c4f5220424c5545207769746820576869746520666f6f74a165627a7a72305820cd3685f2d05c9a961903a9c5c095fa8bfc07b6adeedf08ac964d1a6f88c418ee0029",
  "source": "pragma solidity ^0.5.8; \r\n//Smart Contract to create a product and validating if product is valid by giving Product ID\r\ncontract RolexChain { \r\n    //Data Structure of the Product\r\n    struct productStruct {\r\n        string productUniqueCode;\r\n        string productName;\r\n        string productDescription;\r\n\t\tstring productType;\r\n        string manufacturer;\r\n\t\tstring dateOfManufacture;\r\n\t\tstring valueOfProduct;\r\n    }\r\n\t\r\n    //Data Structure for storing Transactions of a Product\r\n    struct productTransaction {\r\n        string productUniqueCode;\r\n        string dateOfTransaction;\r\n        string transactionNotes;\r\n\t\tstring transactionFrom;\r\n\t\tstring transactionTo;\r\n    }\r\n\t\r\n    //Counters to have Key in Mapping Variable\r\n    uint nextProduct = 0;\r\n    uint nextTransaction = 0;\r\n    \r\n    //Array for both structures\r\n    productStruct[] productStructs;\r\n    productTransaction[] productTransactions;\r\n    \r\n    // Mapping Variables to have Key (Integer value) and Value as Product Structure\r\n    mapping(uint => productStruct) public productMap;\r\n    mapping(uint => productTransaction) public productMapTr;\r\n\r\n    // Function to create a new Product\r\n    function createNewProduct(string memory pUniqueCode, string memory pName, string memory pDescription, string memory pType, string memory pManufacturer, string memory pDateOfManufacture, string memory pValueOfProduct) public { \r\n        nextProduct++;\r\n        productStruct memory newProduct = productStruct ({\r\n            productUniqueCode: pUniqueCode,\r\n            productName: pName,\r\n            productDescription: pDescription,\r\n\t\t\tproductType: pType,\r\n            manufacturer: pManufacturer,\r\n\t\t\tdateOfManufacture: pDateOfManufacture,\r\n\t\t\tvalueOfProduct: pValueOfProduct\r\n        });\r\n        productStructs.push(newProduct);\r\n        productMap[nextProduct]=newProduct;\r\n    }\r\n    // Function to record a Transaction\r\n    function recordTransaction(string memory pUniqueCode,string memory pTransactionDate, string memory pNotes, string memory pFrom, string memory pTo ) public { \r\n        nextTransaction++;\r\n        productTransaction memory newTransaction = productTransaction ({\r\n            productUniqueCode: pUniqueCode,\r\n            dateOfTransaction: pTransactionDate,\r\n            transactionNotes: pNotes,\r\n\t\t\ttransactionFrom: pFrom,\r\n            transactionTo: pTo\r\n        });\r\n        productTransactions.push(newTransaction);\r\n        productMapTr[nextTransaction]=newTransaction;\r\n    }\r\n\r\n    // Function to fill products statically.. only added one , this can be many here\r\n    function fillProducts() public {\r\n        nextProduct++;\r\n        productStruct memory tempProduct = productStruct(\"AD-SH-9I-1000001\", \"ADIDAS 9 SHOE COLOR BLUE\",\"ADIDAS 9 SHOE COLOR BLUE with White foot\", \"SHOES\", \"ADIDAS\", \"2019/01/05\",\"$150.00\");\r\n        productStructs.push(tempProduct);\r\n        productMap[nextProduct]=tempProduct;\r\n    }\r\n\r\n    //Function to validate a productUniqueCode is valid or not\r\n    function isProductValid(string memory productUniqueCode) view public returns (string memory) {\r\n        for(uint i = 0; i <= nextProduct;  i++) {\r\n        \r\n        productStruct memory currentProduct = productMap[i];\r\n        //return \"Your are Valid\";\r\n        if (keccak256(bytes(currentProduct.productUniqueCode))==keccak256(bytes(productUniqueCode))){\r\n            return \"Valid\";\r\n        }\r\n        }\r\n        \r\n        return \"Not a valid Product\";\r\n        \r\n    }\r\n    \r\n    //Function to get Transaction Details\r\n    function getTransactionDetails(string memory productUniqueCode) view public returns (string memory) {\r\n        string memory TransactionDetails;\r\n        TransactionDetails=\"\";\r\n        \r\n        for(uint i = 0; i <= nextTransaction;  i++) {\r\n        \r\n        productTransaction memory currentTransaction = productMapTr[i];\r\n        \r\n        if (keccak256(bytes(currentTransaction.productUniqueCode))==keccak256(bytes(productUniqueCode))){\r\n            \r\n            //TransactionDetails = strConcat(TransactionDetails,\"TransactionNotes: \");\r\n            //TransactionDetails = strConcat(TransactionDetails,currentTransaction.transactionNotes);\r\n            \r\n            //TransactionDetails = strConcat(TransactionDetails,\"DateOfTransaction: \");\r\n            //TransactionDetails = strConcat(TransactionDetails,currentTransaction.dateOfTransaction);\r\n            \r\n            //TransactionDetails = strConcat(TransactionDetails,\"TransactionFrom: \");\r\n            //TransactionDetails = strConcat(TransactionDetails,currentTransaction.transactionFrom);\r\n            \r\n            //TransactionDetails = strConcat(TransactionDetails,\"TransactionTo: \");\r\n            //TransactionDetails = strConcat(TransactionDetails,currentTransaction.transactionTo);\r\n            //TransactionDetails = strConcat(TransactionDetails,\">\");\r\n            TransactionDetails = currentTransaction.transactionTo;\r\n        }\r\n        }\r\n        \r\n        return TransactionDetails;\r\n        \r\n    }\r\n    \r\n        //Function to get current location\r\n    function getProductCurrentLocation(string memory productUniqueCode) view public returns (string memory) {\r\n        string memory TransactionDetails;\r\n        TransactionDetails=\"\";\r\n        \r\n        for(uint i = 0; i <= nextTransaction;  i++) {\r\n        \r\n        productTransaction memory currentTransaction = productMapTr[i];\r\n        \r\n        if (keccak256(bytes(currentTransaction.productUniqueCode))==keccak256(bytes(productUniqueCode))){\r\n            \r\n            TransactionDetails = currentTransaction.transactionTo;\r\n        }\r\n        }\r\n        \r\n        return TransactionDetails;\r\n        \r\n    }\r\n\r\n    \r\n    /*function strConcat(string memory string1, string memory string2) internal returns (string memory){\r\n    bytes memory _ba = bytes(string1);\r\n    bytes memory _bb = bytes(string2);\r\n\r\n    string memory abcde = new string(_ba.length + _bb.length);\r\n    bytes memory babcde = bytes(abcde);\r\n    uint k = 0;\r\n    uint i = 0;\r\n    for (i = 0; i < _ba.length; i++) babcde[k++] = _ba[i];\r\n    for (i = 0; i < _bb.length; i++) babcde[k++] = _bb[i];\r\n    return string(babcde);\r\n}*/\r\n    \r\n}",
  "sourcePath": "/home/paperspace/HelloWorld1/contracts/RolexChain.sol",
  "compiler": {
    "name": "solc",
    "version": "0.5.8+commit.23d335f2.Emscripten.clang"
  },
  "schemaVersion": "3.0.16",
  "updatedAt": "2019-10-18T13:28:31.905Z",
  "devdoc": {
    "methods": {}
  },
  "userdoc": {
    "methods": {}
  }
}